:020000040000FA
:0400000007EF00F016
:0A0008005F8234ED1CF0E2EF29F0F6
:100800000020202020202020202020202020202008
:100810002000252E326620252E336620252E3266B6
:1008200000484F4C41204D554E444F00252E346416
:1008300020252E346400494E46004E414E00696E1C
:1008400066006E616E006C660000000E0101A76F0D
:10085000000EA66FC7C0B8F1C8C0B9F1C9C0BAF1DF
:10086000CAC0BBF1BBBF39EF04F037EF04F04FEF64
:1008700004F0000EA76F010EA66FB8C16EF0B9C1EB
:100880006FF0BAC170F0BBC171F031EC29F06EC0ED
:10089000B8F16FC0B9F170C0BAF171C0BBF1000E10
:1008A0000101BF6F000EBE6FE1C0ABF1E2C0ACF161
:1008B000A651A711D8A45FEF04F061EF04F069EF2F
:1008C00004F00001E5A567EF04F069EF04F084EFA0
:1008D00004F00101A651A711D8A471EF04F073EF41
:1008E00004F079EF04F0000E916F2B0E906F7DEF06
:1008F00004F0000E916F2D0E906F90C11EF1BE4B53
:10090000BF2BAB07D8A0AC07B8C16EF0B9C16FF070
:10091000BAC170F0BBC171F0F3EC23F000016E05B9
:100920006F11D8A496EF04F098EF04F0F6EF04F0FE
:10093000BF0ECC6FFF0ECD6FCB51CE6FCF6BCC51B6
:10094000CE27CD51CF23CF510AE11A0ECE5DD8A0CC
:10095000ACEF04F0AFEF04F0010EB0EF04F0000EC6
:100960000101926F936B92519311D8B4BAEF04F0D6
:10097000BCEF04F0CDEF04F01E0EBE2500016E6F3B
:10098000010E0101BF2100016F6F360E706F080E5E
:10099000716FB4EC27F0DCEF04F01E0EBE250001F1
:1009A0006E6F010E0101BF2100016F6F3E0E706F6F
:1009B000080E716FB4EC27F00101FD0EAB27FF0E9E
:1009C000AC23C5C07EF0C6C07FF01E0E0001806F54
:1009D000010E816FABC182F0ACC183F045EC25F014
:1009E0007EC0C5F07FC0C6F03AEF0AF0B8C16EF025
:1009F000B9C16FF0BAC170F0BBC171F0F3EC23F074
:100A000000016E516F11D8A408EF05F00AEF05F050
:100A100050EF05F0BF0ECC6FFF0ECD6FCB51CE6FF8
:100A2000CF6BCC51CE27CD51CF23CF510AE11A0E37
:100A3000CE5DD8A01EEF05F021EF05F0010E22EFEC
:100A400005F0000E0101946F956B94519511D8B487
:100A50002CEF05F02EEF05F03FEF05F01E0EBE2542
:100A600000016E6F010E0101BF2100016F6F3A0E90
:100A7000706F080E716FB4EC27F0DCEF04F01E0EFF
:100A8000BE2500016E6F010E0101BF2100016F6FD5
:100A9000420E706F080E716FB4EC27F0DCEF04F0BB
:100AA000000E0101C06F000EC16F800EC26F3F0EBD
:100AB000C36F000EBD6F000EBC6FB8C16EF0B9C140
:100AC0006FF0BAC170F0BBC171F0000E0001726F1F
:100AD000000E736F000E746F000E756FC4EC26F07D
:100AE0000001D8B076EF05F078EF05F0FEEF05F0E5
:100AF00097EF05F0C0C17FF0C1C180F0C2C181F0A5
:100B0000C3C182F0000E836F000E846F200E856FCC
:100B1000410E866FA0EC11F07FC0C0F180C0C1F122
:100B200081C0C2F182C0C3F10101BC4BBD2BB8C171
:100B300098F0B9C199F0BAC19AF0BBC19BF0000E10
:100B40000001836F000E846F200E856F410E866F4B
:100B5000C0C17FF0C1C180F0C2C181F0C3C182F0C9
:100B6000A0EC11F07FC09CF080C09DF081C09EF091
:100B700082C09FF070EC23F00001D8B0C2EF05F006
:100B8000C4EF05F07AEF05F0E4EF05F0C0C198F08E
:100B9000C1C199F0C2C19AF0C3C19BF0000E9C6F15
:100BA000000E9D6F200E9E6F410E9F6FCBEC15F0D7
:100BB00098C0C0F199C0C1F19AC0C2F19BC0C3F105
:100BC0000101BC07D8A0BD07B8C198F0B9C199F020
:100BD000BAC19AF0BBC19BF0C0C19CF0C1C19DF0ED
:100BE000C2C19EF0C3C19FF070EC23F00001D8A0F9
:100BF000FCEF05F0FEEF05F0C6EF05F0CBC074F09A
:100C0000756B83EC27F0000174510101AD6FADC12C
:100C1000AAF1670EAD19D8A410EF06F012EF06F096
:100C20003AEF06F00001E351E411D8A41AEF06F000
:100C30001CEF06F020EF06F0000EE46F010EE36FEC
:100C4000E4BF2DEF06F0E45106E1E305D8B02BEF49
:100C500006F02DEF06F034EF06F0000E0101A96F4B
:100C6000060EA86F44EF06F0E3C0A8F1E4C0A9F1B6
:100C700044EF06F00001E4BF40EF06F042EF06F05B
:100C80002DEF06F034EF06F0670E0101AD19D8A480
:100C90004CEF06F04EEF06F084EF06F0BDAF5CEFD0
:100CA00006F0FC0EBC5DFF0EBD59D8A05AEF06F051
:100CB0005CEF06F081EF06F0FF0E0001CC6FFF0E37
:100CC000CD6FA8C1CEF0A9C1CFF0CC51CE27CD5168
:100CD000CF230101BC510001CE5DCF51800AD06FFE
:100CE0000101BD51800A0001D059D8A07AEF06F069
:100CF0007CEF06F081EF06F0660E0101AA6F84EF2B
:100D000006F0650E0101AA6FA8C1A0F1A9C1A1F169
:100D1000670EAD19D8A48FEF06F091EF06F0A1EFA2
:100D200006F0660EAA19D8A498EF06F09AEF06F01E
:100D3000A3EF06F0BDBFA1EF06F09FEF06F0A3EF13
:100D400006F0A04BA12B660EAA19D8A4AAEF06F0B4
:100D5000ACEF06F0CCEF06F0BDBFB3EF06F0B1EF9D
:100D600006F0BFEF06F0000EC06F000EC16F800EE0
:100D7000C26F3F0EC36F000EBD6F000EBC6F670EDB
:100D8000AD19D8B4C6EF06F0C8EF06F0CCEF06F008
:100D9000BC51A027BD51A123000EB76F000EB66F46
:100DA000B8C1AEF1B9C1AFF1BAC1B0F1BBC1B1F1D7
:100DB000C0C18CF1C1C18DF1C2C18EF1C3C18FF12F
:100DC0005EEF07F0AEC198F0AFC199F0B0C19AF0F4
:100DD000B1C19BF0C0C19CF0C1C19DF0C2C19EF0E9
:100DE000C3C19FF0CBEC15F098C0B1F099C0B2F040
:100DF0009AC0B3F09BC0B4F065EC1DF0B1C0B2F185
:100E0000B2C0B3F1B3C0B4F1B4C0B5F1B2C16EF0C9
:100E1000B3C16FF0B4C170F0B5C171F068EC22F0ED
:100E20006EC0A4F16FC0A5F1AEC198F0AFC199F04A
:100E3000B0C19AF0B1C19BF0C0C183F0C1C184F0D0
:100E4000C2C185F0C3C186F0B2C17FF0B3C180F0EA
:100E5000B4C181F0B5C182F0A0EC11F07FC09CF06C
:100E600080C09DF081C09EF082C09FF088EC28F089
:100E700098C0AEF199C0AFF19AC0B0F19BC0B1F18A
:100E8000C0C198F0C1C199F0C2C19AF0C3C19BF032
:100E9000000E00019C6F000E9D6F200E9E6F410E94
:100EA0009F6FCBEC15F098C0C0F199C0C1F19AC00A
:100EB000C2F19BC0C3F10101B64BB72BA051B65D87
:100EC000B751800A0001CC6F0101A151800A0001D5
:100ED000CC59D8A06EEF07F070EF07F0E2EF06F004
:100EE000C0C17FF0C1C180F0C2C181F0C3C182F036
:100EF000000E836F000E846FA00E856F400E866F0C
:100F0000A0EC11F07FC0B2F180C0B3F181C0B4F1A8
:100F100082C0B5F1AEC198F0AFC199F0B0C19AF0FE
:100F2000B1C19BF0B2C19CF0B3C19DF0B4C19EF0C1
:100F3000B5C19FF070EC23F00001D8B0A2EF07F02C
:100F4000A4EF07F0AFEF07F0000E0101B26F000E43
:100F5000B36F000EB46F000EB56FD9EF07F0AEC1DE
:100F60006EF0AFC16FF0B0C170F0B1C171F0B2C13D
:100F700072F0B3C173F0B4C174F0B5C175F0C4ECD4
:100F800026F00001D8A0C7EF07F0C9EF07F0D9EFAE
:100F900007F00101A4B1CFEF07F0D1EF07F0D9EFCF
:100FA00007F0000EB26F000EB36F000EB46F000EAC
:100FB000B56FB8C16EF0B9C16FF0BAC170F0BBC106
:100FC00071F0B2C172F0B3C173F0B4C174F0B5C1C5
:100FD00075F0DFEC0CF06EC0AEF16FC0AFF170C019
:100FE000B0F171C0B1F18CC1C0F18DC1C1F18EC140
:100FF000C2F18FC1C3F1650E0101AA19D8B403EF84
:1010000008F005EF08F00BEF08F0BCC1A2F1BDC17C
:10101000A3F10FEF08F0000EA36F000EA26F000EF9
:101020009F6F000E9E6F000E9D6F000E9C6F000E56
:10103000B76F000EB66F0DEF09F0AEC198F0AFC1FB
:1010400099F0B0C19AF0B1C19BF0C0C19CF0C1C190
:101050009DF0C2C19EF0C3C19FF0CBEC15F098C0CB
:10106000B1F099C0B2F09AC0B3F09BC0B4F065EC97
:101070001DF0B1C0B2F1B2C0B3F1B3C0B4F1B4C0AD
:10108000B5F1B2C16EF0B3C16FF0B4C170F0B5C1CB
:1010900071F068EC22F06EC0A4F16FC0A5F1000100
:1010A000E5B955EF08F057EF08F075EF08F00101CA
:1010B000A451A511D8A45FEF08F061EF08F075EF17
:1010C00008F0670EAD19D8A468EF08F06AEF08F0D1
:1010D00075EF08F0A3BF71EF08F06FEF08F075EF40
:1010E00008F09C4B9D2BC0EF08F001019E519F1111
:1010F000D8A47DEF08F07FEF08F0A9EF08F0A3BFB8
:1011000086EF08F084EF08F0A9EF08F01E0EBE2568
:10111000D96E010EBF21DA6E2E0EDF6EBE4BBF2BD5
:10112000AB07D8A0AC07000E9F6F010E9E6FA9EF12
:1011300008F01E0EBE25D96E010EBF21DA6E300EEC
:10114000DF6EBE4BBF2BAB07D8A0AC079C07D8A067
:101150009D079C519D11D8A4B0EF08F0B2EF08F0A4
:1011600099EF08F01E0EBE25D96E010EBF21DA6E72
:10117000A451300FDF6EBE4BBF2BAB07D8A0AC071E
:10118000AEC198F0AFC199F0B0C19AF0B1C19BF077
:10119000C0C183F0C1C184F0C2C185F0C3C186F073
:1011A000B2C17FF0B3C180F0B4C181F0B5C182F0AB
:1011B000A0EC11F07FC09CF080C09DF081C09EF03B
:1011C00082C09FF088EC28F098C0AEF199C0AFF1D2
:1011D0009AC0B0F19BC0B1F1C0C198F0C1C199F003
:1011E000C2C19AF0C3C19BF0000E00019C6F000EBB
:1011F0009D6F200E9E6F410E9F6FCBEC15F098C037
:10120000C0F199C0C1F19AC0C2F19BC0C3F1010104
:10121000A207D8A0A307B64BB72BA051B65DB75114
:10122000800A0001CC6F0101A151800A0001CC5954
:10123000D8B01DEF09F01FEF09F02EEF09F0010102
:10124000BFBF2CEF09F0BF5109E14B0EBE5DD8A026
:101250002CEF09F02EEF09F01DEF08F001019E516F
:101260009F11D8A436EF09F038EF09F04BEF09F0E1
:101270000001E5A93EEF09F040EF09F04BEF09F05E
:101280001E0E0101BE25D96E010EBF21DA6E2E0E93
:10129000DF6EBE4BBF2B1E0E0101BE25D96E010EA7
:1012A000BF21DA6E000EDF6E650EAA19D8A45BEFBF
:1012B00009F05DEF09F0E1EF04F0000EB76F4F0E9B
:1012C000B66F1E0EB625D96E010EB721DA6E000E6E
:1012D000DF6E000EA76F000EA66FBDBF74EF09F0A2
:1012E00072EF09F07CEF09F0000EA76F010EA66FF8
:1012F000BC6DBD1FD8B0BD2B000EA96F020EA86F2C
:10130000AFEF09F0B607D8A0B7071E0EB625D96E05
:10131000010EB721DA6EBCC16EF0BDC16FF0000ED8
:101320000001716F0A0E706F6BEC26F000016E51B8
:10133000300FDF6EBCC16EF0BDC16FF0000E716F7B
:101340000A0E706FAAEC25F06EC0BCF16FC0BDF143
:101350000101A807D8A0A907AB07D8A0AC07BC51CA
:10136000BD11D8A4B6EF09F0B8EF09F082EF09F08B
:10137000A9BFC5EF09F0A95106E1A805D8B0C3EF90
:1013800009F0C5EF09F082EF09F0B607D8A0B7075A
:10139000A651A711D8A4CFEF09F0D1EF09F0D7EFEC
:1013A00009F0000E976F2B0E966FDBEF09F0000E21
:1013B000976F2D0E966F1E0EB625D96E010EB721B2
:1013C000DA6E96C1DFFFAB07D8A0AC07B607D8A08E
:1013D000B707BF0E0001CC6FFF0ECD6FCB51CE6FA4
:1013E000CF6BCC51CE27CD51CF23CF510AE11A0E6E
:1013F000CE5DD8A0FEEF09F001EF0AF0010E02EF7A
:101400000AF0000E01019A6F9B6B9A519B11D8A4B0
:101410000CEF0AF00EEF0AF014EF0AF0000E996FCD
:10142000650E986F18EF0AF0000E996F450E986FD1
:101430001E0EB625D96E010EB721DA6E98C1DFFFF8
:10144000AB07D8A0AC071E0EBE2500016E6F010EC3
:101450000101BF2100016F6F1E0E0101B6250001C1
:10146000706F010E0101B7210001716FB4EC27F01C
:10147000E1EF04F01200D3C0D9FFD4C0DAFFDECF11
:10148000F6FFDDCFF7FF0800F550250AD8A44BEF93
:101490000AF04DEF0AF0C2EF0CF0D3C0D9FFD4C070
:1014A000DAFFDE2A000EDD22000E0001E26F000EE0
:1014B000E16FE1C0E5F0E2C0E6F0E369E469D3C0C2
:1014C000D9FFD4C0DAFFDECFF6FFDDCFF7FF08008B
:1014D000F5502E0AD8A46FEF0AF071EF0AF0F0EF82
:1014E0000AF0000EE46F000EE36FD3C0D9FFD4C042
:1014F000DAFFDE2A000EDD22D3C0D9FFD4C0DAFF26
:10150000DECFF6FFDDCFF7FF0800F5502A0AD8A49A
:101510008CEF0AF08EEF0AF0ABEF0AF0D3C0D9FFE0
:10152000D4C0DAFFDE2A000EDD22D5C0D9FFD6C036
:10153000DAFFDFCFD7F0020EDE26DFCFD8F0000EC5
:10154000DD22D7C0D9FFD8C0DAFFDECFE3F0DDCF90
:10155000E4F0F0EF0AF0D3C0D9FFD4C0DAFFDECF59
:1015600075F0DDCF76F026EC20F075C0E3F076C0A4
:10157000E4F0C2EF0AF0D3C0D9FFD4C0DAFFDE2A0C
:10158000000EDD22D00E0001D76FFF0ED86FD3C042
:10159000D9FFD4C0DAFFDECFF6FFDDCFF7FF0800BA
:1015A000F550D96FDA6BD751D927D851DA23DA51F0
:1015B0000AE10A0ED95DD8A0E0EF0AF0E3EF0AF0E5
:1015C000010EE4EF0AF0000E0101CC6FCD6BCC519F
:1015D000CD11D8A4EEEF0AF0F0EF0AF0BBEF0AF05D
:1015E000D3C0D9FFD4C0DAFFDECFF6FFDDCFF7FFDF
:1015F0000800F5500001746F756B83EC27F0000153
:1016000074510101D46FD451D8B409EF0BF00BEF32
:101610000BF049EF0BF0D3C0D9FFD4C0DAFFDECF17
:10162000D7F0DDCFD8F0010E0001D727000ED82368
:10163000D7C0F6FFD8C0F7FF0800F550746F756B80
:1016400083EC27F0000174510101D56FD551D8B456
:101650002CEF0BF02EEF0BF049EF0BF0D3C0D9FFBE
:10166000D4C0DAFFDECFD7F0DDCFD8F0020E000114
:10167000D727000ED823D7C0F6FFD8C0F7FF080041
:10168000F550746F756B83EC27F000017451010104
:10169000D66FD3C0D9FFD4C0DAFFDECFF6FFDDCFDF
:1016A000F7FF0800F550640AD8B459EF0BF05BEF70
:1016B0000BF06DEF0BF0D3C0D9FFD4C0DAFFDECF53
:1016C000F6FFDDCFF7FF0800F550690AD8A46BEFED
:1016D0000BF06DEF0BF0ADEF0BF0D3C0D9FFD4C022
:1016E000DAFFDE2A000EDD22D5C0D9FFD6C0DAFF30
:1016F000DFCFD7F0020EDE26DFCFD8F0000EDD22DE
:10170000D7C0D9FFD8C0DAFFDECFC4F1DDCFC5F135
:10171000000EC5BFFF0EC66FC76FC86FC96FCA6F17
:10172000CB6FD1C089F0D2C08AF0C4C18BF0C5C1E3
:101730008CF0C6C18DF0C7C18EF0C8C18FF0C9C191
:1017400090F0CAC191F0CBC192F066EC19F089C05B
:10175000D1F08AC0D2F0DEEF0CF0660ED419D8A416
:10176000B4EF0BF0B6EF0BF0F6EF0BF0D3C0D9FFF0
:10177000D4C0DAFFDECFF6FFDDCFF7FF0800F5CFEC
:10178000D7F1D3C0D9FFD4C0DAFFDE2A000EDD22A4
:10179000D5C0D9FFD6C0DAFFDFCFD7F0040EDE26E2
:1017A000DFCFD8F0000EDD22D7C0D9FFD8C0DAFFD6
:1017B000DECFD0F1DECFD1F1DECFD2F1DECFD3F16B
:1017C000D1C0C5F0D2C0C6F0D0C1C7F0D1C1C8F0F9
:1017D000D2C1C9F0D3C1CAF0D7C1CBF025EC04F017
:1017E000C5C0D1F0C6C0D2F0DEEF0CF0D40E0001BF
:1017F0006E6F010E6F6F460E706F080E716F000EE8
:10180000736F020E726F73EC24F000016E516F1152
:10181000D8A40DEF0CF00FEF0CF08BEF0CF0D3C051
:10182000D9FFD4C0DAFFDECFD7F0DDCFD8F0010E7C
:10183000D727000ED823D7C0F6FFD8C0F7FF08007F
:10184000F5CFD7F1BF0ED76FFF0ED86FD3C0D9FF3A
:10185000D4C0DAFFDECFF6FFDDCFF7FF0800F5508A
:10186000D96FDA6BD751D927D851DA23DA510AE187
:101870001A0ED95DD8A03FEF0CF042EF0CF0010E2C
:1018800043EF0CF0000E0101CE6FCF6BCE51CF11A4
:10189000D8B44DEF0CF04FEF0CF069EF0CF0D5C061
:1018A000D9FFD6C0DAFFDFCFD7F0040EDE26DFCFB8
:1018B000D8F0000EDD22D7C0D9FFD8C0DAFFDECFC6
:1018C000D0F1DECFD1F1DECFD2F1DECFD3F181EF97
:1018D0000CF0D5C0D9FFD6C0DAFFDFCFD7F0040EA9
:1018E000DE26DFCFD8F0000EDD22D7C0D9FFD8C06A
:1018F000DAFFDECFD0F1DECFD1F1DECFD2F1DECF15
:10190000D3F1020ED3C0D9FFD4C0DAFFDE26000E19
:10191000DD22E0EF0BF0D3C0D9FFD4C0DAFFDECF79
:10192000F6FFDDCFF7FF0800F550250AD8A49BEF9E
:101930000CF09DEF0CF0B5EF0CF0D3C0D9FFD4C084
:10194000DAFFDE2A000EDD22000E6F6F250E6E6FAD
:10195000D1C070F0D2C071F0DFEC24F0000E0001B5
:10196000D26F010ED16FDEEF0CF0D3C0D9FFD4C01F
:10197000DAFFDE2A000EDD22000ED26F000ED16FDC
:10198000DEEF0CF0D3C0D9FFD4C0DAFFDECFF6FF14
:10199000DDCFF7FF0800F55000016E6F6F6BD1C00F
:1019A00070F0D2C071F0DFEC24F0D3C0D9FFD4C006
:1019B000DAFFDE2A000EDD22AEEF0CF0120000018D
:1019C0007151800B7A6F715171257C6F70AFEBEFA5
:1019D0000CF0EDEF0CF0EEEF0CF07C817C51D8B404
:1019E000F4EF0CF0F6EF0CF00BEF0DF07C29D8A41F
:1019F000FCEF0CF0FEEF0CF006EF0DF0000E6E6F3A
:101A0000000E6F6F000E706F000E716F708F000E02
:101A1000716F13EF0DF0000E6E6F000E6F6F000E02
:101A2000706F000E716F7551800B7B6F7A517B194F
:101A3000D8B41DEF0DF01FEF0DF020EF0DF07A8DF3
:101A4000755175257B6F74AF28EF0DF02AEF0DF0FF
:101A50002BEF0DF07B817B51D8B431EF0DF033EFDC
:101A60000DF048EF0DF07B29D8A439EF0DF03BEFD6
:101A70000DF043EF0DF0000E726F000E736F000E4D
:101A8000746F000E756F748F000E756F50EF0DF050
:101A9000000E726F000E736F000E746F000E756F84
:101AA0007C517B5DD8B057EF0DF059EF0DF080EF12
:101AB0000DF07AAD5EEF0DF060EF0DF062EF0DF01E
:101AC000800E7A1B7CC07DF07BC07CF07DC07BF0FB
:101AD0006EC07DF072C06EF07DC072F06FC07DF0A0
:101AE00073C06FF07DC073F070C07DF074C070F093
:101AF0007DC074F071C07DF075C071F07DC075F06F
:101B0000000E7D6F7C517BC076F0776B765F000EA8
:101B1000775B77BF95EF0DF0775109E11A0E765D8F
:101B2000D8A095EF0DF097EF0DF0CEEF0DF06E51C0
:101B30006F1170117111D8A4A0EF0DF0A3EF0DF08B
:101B4000010EA4EF0DF0000E7D6F000E6E6F000E03
:101B50006F6F000E706F000E716F7BC07CF0D7EF5F
:101B60000DF07DA1B6EF0DF0B8EF0DF0BEEF0DF06A
:101B7000D8907D3101097D6FC0EF0DF0D8907D3395
:101B80006EA1C5EF0DF0C7EF0DF0C8EF0DF07D8F22
:101B90007135713370336F336E337C2B7B517C5DC9
:101BA000D8A0D5EF0DF0D7EF0DF0B1EF0DF07ABD65
:101BB000DCEF0DF0DEEF0DF01EEF0EF07C51D8A43F
:101BC000E4EF0DF0E6EF0DF0F0EF0DF0000E6E6FAC
:101BD000000E6F6F000E706F000E716F3FEF0FF011
:101BE00072516E2773516F23745170237551712395
:101BF00071A1FDEF0DF0FFEF0DF0ABEF0EF07DA149
:101C000004EF0EF006EF0EF00CEF0EF0D8907D31E1
:101C100001097D6F0EEF0EF0D8907D336EA113EFAA
:101C20000EF015EF0EF016EF0EF07D8F713571335B
:101C300070336F336E337C2BABEF0EF072516E5DF1
:101C400073516F59745170597151800A766F755183
:101C5000800A7659D8B02FEF0EF031EF0EF05CEF1E
:101C60000EF06E51725D766F6F517359776F7051D0
:101C70007459786F71517559796FFF0E76256E6FB3
:101C8000FF0E77216F6FFF0E7821706FFF0E7921A5
:101C9000716F800E7A1B7D6D7D51D8A452EF0EF0CE
:101CA00054EF0EF064EF0EF0010E6E27000E6F235E
:101CB0007023712364EF0EF072516E5F73516F5B8E
:101CC0007451705B7551715B6E516F1170117111B0
:101CD000D8A46DEF0EF06FEF0EF0A4EF0EF07D5173
:101CE000D8A475EF0EF077EF0EF0A4EF0EF0000E13
:101CF0006E6F000E6F6F000E706F000E716F3FEF12
:101D00000FF0D8906E376F37703771377DAF8BEF2C
:101D10000EF08DEF0EF08EEF0EF06E817DA193EF41
:101D20000EF095EF0EF099EF0EF0D8807D379BEF17
:101D30000EF0D8907D377C51D8B4A1EF0EF0A3EF10
:101D40000EF0A4EF0EF07C0770AFA9EF0EF0ABEF32
:101D50000EF081EF0EF0000E7B6F7DAFB2EF0EF054
:101D6000B4EF0EF0CCEF0EF07DC076F07F0E76175C
:101D7000D8B4BDEF0EF0BFEF0EF0C3EF0EF0010EC2
:101D80007B6FCCEF0EF06EA1C8EF0EF0CAEF0EF035
:101D9000CCEF0EF0BFEF0EF07B51D8B4D2EF0EF0C7
:101DA000D4EF0EF0FFEF0EF0010E6E27000E6F2342
:101DB0007023712371A1DFEF0EF0E1EF0EF0FFEF62
:101DC0000EF06EC076F06FC077F070C078F071C022
:101DD00079F07935793378337733763376C06EF0AE
:101DE00077C06FF078C070F079C071F07C29D8B4FA
:101DF000FCEF0EF0FEEF0EF0FFEF0EF07C2B7C29D7
:101E0000D8B405EF0FF007EF0FF00FEF0FF07C5194
:101E1000D8A40DEF0FF00FEF0FF021EF0FF0000E31
:101E20006E6F000E6F6F000E706F000E716F7C5141
:101E3000D8A41DEF0FF01FEF0FF021EF0FF0000EF1
:101E40007A6F7CA126EF0FF028EF0FF02BEF0FF049
:101E5000708F2CEF0FF0709FD8907C31716F7AAF3C
:101E600034EF0FF036EF0FF037EF0FF0718F6EC0D9
:101E70006EF06FC06FF070C070F071C071F0120042
:101E80004450800B4D6E445044244F6E43AE4BEF94
:101E90000FF04DEF0FF04EEF0FF04F804F50D8B4D2
:101EA00054EF0FF056EF0FF06BEF0FF04F28D8A460
:101EB0005CEF0FF05EEF0FF066EF0FF0000E416E7B
:101EC000000E426E000E436E000E446E438E000EF6
:101ED000446E73EF0FF0000E416E000E426E000E66
:101EE000436E000E446E4850800B4E6E4D504E189F
:101EF000D8B47DEF0FF07FEF0FF080EF0FF04D8C37
:101F0000485048244E6E47AE88EF0FF08AEF0FF02E
:101F10008BEF0FF04E804E50D8B491EF0FF093EF4F
:101F20000FF0A8EF0FF04E28D8A499EF0FF09BEF19
:101F30000FF0A3EF0FF0000E456E000E466E000E80
:101F4000476E000E486E478E000E486EB0EF0FF0E1
:101F5000000E456E000E466E000E476E000E486E77
:101F60004F504E5CD8B0B7EF0FF0B9EF0FF0E0EF85
:101F70000FF04DACBEEF0FF0C0EF0FF0C2EF0FF05F
:101F8000800E4D1A4FC050F04EC04FF050C04EF072
:101F900041C050F045C041F050C045F042C050F043
:101FA00046C042F050C046F043C050F047C043F036
:101FB00050C047F044C050F048C044F050C048F012
:101FC000000E506E4F504EC049F04A6A495E000EF6
:101FD0004A5A4ABEF5EF0FF04A5009E11A0E495C21
:101FE000D8A0F5EF0FF0F7EF0FF02EEF10F0415003
:101FF000421043104410D8A400EF10F003EF10F08B
:10200000010E04EF10F0000E506E000E416E000E37
:10201000426E000E436E000E446E4EC04FF037EF1E
:1020200010F050A016EF10F018EF10F01EEF10F0A7
:10203000D89050300109506E20EF10F0D8905032F7
:1020400041A025EF10F027EF10F028EF10F0508E90
:10205000443444324332423241324F2A4E504F5C74
:10206000D8A035EF10F037EF10F011EF10F04DBCA5
:102070003CEF10F03EEF10F07EEF10F04F50D8A480
:1020800044EF10F046EF10F050EF10F0000E416EEC
:10209000000E426E000E436E000E446E9FEF11F074
:1020A0004550412646504222475043224850442240
:1020B00044A05DEF10F05FEF10F00BEF11F050A0B7
:1020C00064EF10F066EF10F06CEF10F0D890503025
:1020D0000109506E6EEF10F0D890503241A073EFAE
:1020E00010F075EF10F076EF10F0508E443444325B
:1020F0004332423241324F2A0BEF11F04550415CDE
:1021000046504258475043584450800A496E485000
:10211000800A4958D8B08FEF10F091EF10F0BCEF63
:1021200010F04150455C496E425046584A6E43504B
:1021300047584B6E445048584C6EFF0E4924416E30
:10214000FF0E4A20426EFF0E4B20436EFF0E4C20C6
:10215000446E800E4D1A506C5050D8A4B2EF10F05F
:10216000B4EF10F0C4EF10F0010E4126000E422231
:1021700043224422C4EF10F04550415E4650425A7B
:102180004750435A4850445A41504210431044105B
:10219000D8A4CDEF10F0CFEF10F004EF11F05050B5
:1021A000D8A4D5EF10F0D7EF10F004EF11F0000E27
:1021B000416E000E426E000E436E000E446E9FEFA5
:1021C00011F0D890413642364336443650AEEBEFEC
:1021D00010F0EDEF10F0EEEF10F0418050A0F3EFB3
:1021E00010F0F5EF10F0F9EF10F0D8805036FBEF5B
:1021F00010F0D89050364F50D8B401EF11F003EFE3
:1022000011F004EF11F04F0643AE09EF11F00BEFA0
:1022100011F0E1EF10F0000E4E6E50AE12EF11F023
:1022200014EF11F02CEF11F050C049F07F0E491659
:10223000D8B41DEF11F01FEF11F023EF11F0010ED4
:102240004E6E2CEF11F041A028EF11F02AEF11F0A3
:102250002CEF11F01FEF11F04E50D8B432EF11F007
:1022600034EF11F05FEF11F0010E4126000E422213
:102270004322442244A03FEF11F041EF11F05FEF01
:1022800011F041C049F042C04AF043C04BF044C095
:102290004CF04C344C324B324A32493249C041F056
:1022A0004AC042F04BC043F04CC044F04F28D8B471
:1022B0005CEF11F05EEF11F05FEF11F04F2A4F2845
:1022C000D8B465EF11F067EF11F06FEF11F04F50D8
:1022D000D8A46DEF11F06FEF11F081EF11F0000E47
:1022E000416E000E426E000E436E000E446E4F5063
:1022F000D8A47DEF11F07FEF11F081EF11F0000E07
:102300004D6E4FA086EF11F088EF11F08BEF11F0BA
:10231000438E8CEF11F0439ED8904F30446E4DAEFB
:1023200094EF11F096EF11F097EF11F0448E41C049
:1023300041F042C042F043C043F044C044F01200B8
:1023400000018251800B8B6F82518225916F81AF8A
:10235000ACEF11F0AEEF11F0AFEF11F091819151B0
:10236000D8B4B5EF11F0B7EF11F0CAEF11F0912921
:10237000D8A4BDEF11F0BFEF11F0C7EF11F0000EC0
:102380007F6F000E806F000E816F000E826F818F55
:10239000D2EF11F0000E7F6F000E806F000E816F84
:1023A000000E826F8651800B8B1B865186258C6FA9
:1023B00085AFDDEF11F0DFEF11F0E0EF11F08C8170
:1023C0008C51D8B4E6EF11F0E8EF11F0FBEF11F00B
:1023D0008C29D8A4EEEF11F0F0EF11F0F8EF11F026
:1023E000000E836F000E846F000E856F000E866FE7
:1023F000858F03EF12F0000E836F000E846F000EC6
:10240000856F000E866F8C51D8B409EF12F00BEF78
:1024100012F013EF12F09151D8A411EF12F013EF54
:1024200012F01DEF12F0000E7F6F000E806F000E95
:10243000816F000E826FB5EF13F085517F03F3CFEC
:1024400096F0F4CF97F096518D6F8E6B8F6B906BEB
:102450009751926F936B946B956B84518003F3CF7C
:1024600096F0F4CF97F096518D27000E8E238F2390
:10247000902397519227000E932394239523835101
:102480008103F3CF96F0F4CF97F096518D27000E8D
:102490008E238F23902397519227000E932394230A
:1024A00095238FC090F08EC08FF08DC08EF08D6B15
:1024B00083518003F3CF96F0F4CF97F096518D2798
:1024C00097518E23000E8F23000E902384517F039B
:1024D000F3CF96F0F4CF97F096518D2797518E2336
:1024E000000E8F23000E90238FC090F08EC08FF0CF
:1024F0008DC08EF08D6B83517F03F3CF96F0F4CFB8
:1025000097F096518D2797518E23000E8F23000E42
:10251000902385518003F3CF96F0F4CF97F0965136
:10252000922797519323000E9423000E95238451F4
:102530008103F3CF96F0F4CF97F0965192279751FD
:102540009323000E9423000E952385518103F3CF2E
:1025500096F0F4CF97F09651876F9751886F896BFB
:102560008A6B89C08AF088C089F087C088F0876B41
:102570008751922788519323895194238A51952317
:102580008DC087F08EC088F08FC089F090C08AF02F
:10259000190ED0EF12F0D8908A33893388338733FD
:1025A000E82ECBEF12F0875192278851932389515F
:1025B00094238A5195238FC090F08EC08FF08DC0E8
:1025C0008EF08D6B8C5191C087F0886B8727000E41
:1025D0008823820E8725966FFF0E8821976F06EF5E
:1025E00013F0D890923793379437953790AFFBEF2D
:1025F00012F0FDEF12F0FEEF12F09281D8908D37BD
:102600008E378F3790379607D8A0970794AF0BEF88
:1026100013F00DEF13F0F1EF12F0000E8C6F90AF8E
:1026200014EF13F016EF13F03AEF13F0FF0E8D15C1
:10263000876FFF0E8E15886FFF0E8F15896F7F0EC7
:1026400090158A6F8751881189118A11D8B42BEFA0
:1026500013F02DEF13F031EF13F0010E8C6F3AEF02
:1026600013F092A136EF13F038EF13F03AEF13F0B6
:102670002DEF13F08C51D8B440EF13F042EF13F06C
:1026800066EF13F0010E9227000E932394239523F7
:1026900095A14DEF13F04FEF13F066EF13F092C0DA
:1026A00087F093C088F094C089F095C08AF08A358D
:1026B0008A3389338833873387C092F088C093F098
:1026C00089C094F08AC095F0964B972B97BF71EF15
:1026D00013F0975108E19629D8A071EF13F073EF2A
:1026E00013F07DEF13F0000E926F000E936F800ECB
:1026F000946F7F0E956FABEF13F097BF8AEF13F0D7
:10270000975106E19605D8B088EF13F08AEF13F0E1
:1027100096EF13F0000E926F000E936F000E946F01
:10272000000E956F000E8B6FABEF13F096C091F01B
:10273000FF0E9217FF0E93177F0E9417000E95173A
:1027400091A1A5EF13F0A7EF13F0A8EF13F0948F6A
:10275000D8909131956F8B51951392C07FF093C0B3
:1027600080F094C081F095C082F012001250800B6E
:102770001B6E12501224216E11AEC1EF13F0C3EF85
:1027800013F0C4EF13F021802150D8B4CAEF13F036
:10279000CCEF13F0DFEF13F02128D8A4D2EF13F021
:1027A000D4EF13F0DCEF13F0000E0F6E000E106E7E
:1027B000000E116E000E126E118EE7EF13F0000E78
:1027C0000F6E000E106E000E116E000E126E16507F
:1027D000800B1B1A16501624206E15AEF2EF13F064
:1027E000F4EF13F0F5EF13F020802050D8B4FBEF96
:1027F00013F0FDEF13F010EF14F02028D8A403EF2E
:1028000014F005EF14F00DEF14F0000E136E000E2F
:10281000146E000E156E000E166E158E18EF14F065
:10282000000E136E000E146E000E156E000E166E66
:102830002050D8B41EEF14F020EF14F028EF14F05D
:102840002150D8A426EF14F028EF14F032EF14F042
:10285000000E0F6E000E106E000E116E000E126E46
:10286000CAEF15F015500F02F3CF26F0F4CF27F082
:1028700026501C6E1D6A1E6A1F6A2750226E236A2C
:10288000246A256A14501002F3CF26F0F4CF27F003
:1028900026501C26000E1D221E221F2227502226F3
:1028A000000E23222422252213501102F3CF26F0FA
:1028B000F4CF27F026501C26000E1D221E221F22B8
:1028C00027502226000E2322242225221EC01FF07C
:1028D0001DC01EF01CC01DF01C6A13501002F3CF67
:1028E00026F0F4CF27F026501C2627501D22000E7C
:1028F0001E22000E1F2214500F02F3CF26F0F4CF39
:1029000027F026501C2627501D22000E1E22000EE6
:102910001F221EC01FF01DC01EF01CC01DF01C6A2F
:1029200013500F02F3CF26F0F4CF27F026501C26C9
:1029300027501D22000E1E22000E1F2215501002CD
:10294000F3CF26F0F4CF27F026502226275023225B
:10295000000E2422000E252214501102F3CF26F07F
:10296000F4CF27F02650222627502322000E2422BF
:10297000000E252215501102F3CF26F0F4CF27F0D8
:102980002650176E2750186E196A1A6A19C01AF065
:1029900018C019F017C018F0176A175022261850DF
:1029A0002322195024221A5025221CC017F01DC0C2
:1029B00018F01EC019F01FC01AF0190EE5EF14F040
:1029C000D8901A32193218321732E82EE0EF14F08C
:1029D0001750222618502322195024221A5025223B
:1029E0001EC01FF01DC01EF01CC01DF01C6A205030
:1029F00021C017F0186A1726000E1822820E17241D
:102A0000266EFF0E1820276E1BEF15F0D890223689
:102A10002336243625361FAE10EF15F012EF15F0D1
:102A200013EF15F02280D8901C361D361E361F3647
:102A30002606D8A0270624AE20EF15F022EF15F0C9
:102A400006EF15F0000E206E1FAE29EF15F02BEFEC
:102A500015F04FEF15F0FF0E1C14176EFF0E1D142E
:102A6000186EFF0E1E14196E7F0E1F141A6E17506B
:102A7000181019101A10D8B440EF15F042EF15F0E5
:102A800046EF15F0010E206E4FEF15F022A04BEF30
:102A900015F04DEF15F04FEF15F042EF15F0205007
:102AA000D8B455EF15F057EF15F07BEF15F0010E88
:102AB0002226000E23222422252225A062EF15F0D3
:102AC00064EF15F07BEF15F022C017F023C018F06B
:102AD00024C019F025C01AF01A341A3219321832EB
:102AE000173217C022F018C023F019C024F01AC002
:102AF00025F0264A272A27BE86EF15F0275008E141
:102B00002628D8A086EF15F088EF15F092EF15F083
:102B1000000E226E000E236E800E246E7F0E256E38
:102B2000C0EF15F027BE9FEF15F0275006E12604F1
:102B3000D8B09DEF15F09FEF15F0ABEF15F0000E3C
:102B4000226E000E236E000E246E000E256E000E07
:102B50001B6EC0EF15F026C021F0FF0E2216FF0EEF
:102B600023167F0E2416000E251621A0BAEF15F0AD
:102B7000BCEF15F0BDEF15F0248ED8902130256EF6
:102B80001B50251222C00FF023C010F024C011F0FA
:102B900025C012F0120000019B51800BA86F9B51C1
:102BA0009B25AF6F9AAFD7EF15F0D9EF15F0DAEF9D
:102BB00015F0AF81AF51D8B4E0EF15F0E2EF15F0AA
:102BC000F7EF15F0AF29D8A4E8EF15F0EAEF15F00C
:102BD000F2EF15F0000E986F000E996F000E9A6FCD
:102BE000000E9B6F9A8F000E9B6FFFEF15F0000E8B
:102BF000986F000E996F000E9A6F000E9B6F9F5199
:102C0000800BA81B9F519F25B06F9EAF0AEF16F057
:102C10000CEF16F00DEF16F0B081B051D8B413EFF1
:102C200016F015EF16F02AEF16F0B029D8A41BEF16
:102C300016F01DEF16F025EF16F0000E9C6F000E3B
:102C40009D6F000E9E6F000E9F6F9E8F000E9F6FF8
:102C500032EF16F0000E9C6F000E9D6F000E9E6FFF
:102C6000000E9F6F9C519D119E119F11D8A43BEFA8
:102C700016F03DEF16F055EF16F0000E986F000EAF
:102C8000996F000E9A6F000E9B6F800E9A137F0E45
:102C90009B13A8519B1398C098F099C099F09AC0C3
:102CA0009AF09BC09BF098EF17F0AF51D8A45BEF60
:102CB00016F05DEF16F067EF16F0000E986F000E3D
:102CC000996F000E9A6F000E9B6F98EF17F0B0513E
:102CD000AFC0A0F0A16BA05F000EA15B7F0EA0258E
:102CE000A96F000EA121AA6F98C0A4F099C0A5F009
:102CF0009AC0A6F09BC0A7F0000E986F000E996FC7
:102D0000000E9A6F000E9B6F000EAB6F000EAC6F43
:102D1000000EAD6F000EAE6F000EB06FC8EF16F074
:102D2000B051D8B496EF16F098EF16F0AFEF16F05A
:102D3000D890A437A537A637A737D89098379937B2
:102D40009A379B37AEAFA7EF16F0A9EF16F0AAEFB0
:102D500016F09881D890AB37AC37AD37AE379C5171
:102D6000A45D9D51A5599E51A6599F51A759D8A020
:102D7000BCEF16F0BEEF16F0C7EF16F0AE8D9C510B
:102D8000A45F9D51A55B9E51A65B9F51A75BB02B95
:102D9000190EB065CEEF16F0D0EF16F090EF16F0EA
:102DA000A451A511A611A711D8B4D9EF16F0DBEFE5
:102DB00016F0F3EF16F0AB81F3EF16F0D8909837DA
:102DC00099379A379B37AEAFE8EF16F0EAEF16F077
:102DD000EBEF16F09881D890AB37AC37AD37AE3704
:102DE000A907D8A0AA079AAFF8EF16F0FAEF16F0E5
:102DF000DEEF16F0000EB06FAEAF01EF17F003EF8D
:102E000017F027EF17F0FF0EAB15A06FFF0EAC15F4
:102E1000A16FFF0EAD15A26F7F0EAE15A36FA0516F
:102E2000A111A211A311D8B418EF17F01AEF17F0DF
:102E30001EEF17F0010EB06F27EF17F098A123EFE8
:102E400017F025EF17F027EF17F01AEF17F0B05132
:102E5000D8B42DEF17F02FEF17F053EF17F0010E46
:102E60009827000E99239A239B239BA13AEF17F0F2
:102E70003CEF17F053EF17F098C0A0F099C0A1F005
:102E80009AC0A2F09BC0A3F0A335A333A233A13311
:102E9000A033A0C098F0A1C099F0A2C09AF0A3C03E
:102EA0009BF0A94BAA2BAABF5EEF17F0AA5108E12D
:102EB000A929D8A05EEF17F060EF17F06BEF17F0BD
:102EC000000EAA6FA969000E986F000E996F000E90
:102ED0009A6F000E9B6FAABF78EF17F0AA5106E118
:102EE000A905D8B076EF17F078EF17F086EF17F056
:102EF000000EAA6F000EA96F000E986F000E996F5A
:102F0000000E9A6F000E9B6F000EA86FA9C0AFF065
:102F1000AFA18DEF17F08FEF17F092EF17F09A8FA8
:102F200093EF17F09A9FD890AF319B6F49EF16F04F
:102F300012002B50800B386E2B502B243F6E2AAE84
:102F4000A4EF17F0A6EF17F0A7EF17F03F803F5060
:102F5000D8B4ADEF17F0AFEF17F0C4EF17F03F287C
:102F6000D8A4B5EF17F0B7EF17F0BFEF17F0000ECA
:102F7000286E000E296E000E2A6E000E2B6E2A8E11
:102F8000000E2B6ECCEF17F0000E286E000E296E8F
:102F9000000E2A6E000E2B6E2F50800B381A2F5009
:102FA0002F24406E2EAED7EF17F0D9EF17F0DAEFDF
:102FB00017F040804050D8B4E0EF17F0E2EF17F080
:102FC000F7EF17F04028D8A4E8EF17F0EAEF17F072
:102FD000F2EF17F0000E2C6E000E2D6E000E2E6E0E
:102FE000000E2F6E2E8E000E2F6EFFEF17F0000ECC
:102FF0002C6E000E2D6E000E2E6E000E2F6E2C50BD
:103000002D102E102F10D8A408EF18F00AEF18F08A
:1030100022EF18F0000E286E000E296E000E2A6EA8
:10302000000E2B6E800E2A127F0E2B1238502B12A0
:1030300028C028F029C029F02AC02AF02BC02BF084
:1030400065EF19F03F50D8A428EF18F02AEF18F0D8
:1030500034EF18F0000E286E000E296E000E2A6E56
:10306000000E2B6E65EF19F040503FC030F0316A12
:10307000305E000E315A7F0E3024396E000E312042
:103080003A6E28C034F029C035F02AC036F02BC083
:1030900037F0000E286E000E296E000E2A6E000E0C
:1030A0002B6E000E3B6E000E3C6E000E3D6E000E51
:1030B0003E6E000E406E95EF18F04050D8B463EFAE
:1030C00018F065EF18F07CEF18F0D89034363536EC
:1030D00036363736D890283629362A362B363EAE45
:1030E00074EF18F076EF18F077EF18F02880D8908A
:1030F0003B363C363D363E362C50345C2D503558F0
:103100002E5036582F503758D8A089EF18F08BEF33
:1031100018F094EF18F03E8C2C50345E2D50355A38
:103120002E50365A2F50375A402A190E40649BEFC2
:1031300018F09DEF18F05DEF18F034503510361090
:103140003710D8B4A6EF18F0A8EF18F0C0EF18F0B9
:103150003B80C0EF18F0D890283629362A362B3617
:103160003EAEB5EF18F0B7EF18F0B8EF18F02880C2
:10317000D8903B363C363D363E363906D8A03A0626
:103180002AAEC5EF18F0C7EF18F0ABEF18F0000E3D
:10319000406E3EAECEEF18F0D0EF18F0F4EF18F01E
:1031A000FF0E3B14306EFF0E3C14316EFF0E3D14CB
:1031B000326E7F0E3E14336E3050311032103310A9
:1031C000D8B4E5EF18F0E7EF18F0EBEF18F0010EC8
:1031D000406EF4EF18F028A0F0EF18F0F2EF18F0BE
:1031E000F4EF18F0E7EF18F04050D8B4FAEF18F009
:1031F000FCEF18F020EF19F0010E2826000E29220E
:103200002A222B222BA007EF19F009EF19F020EF4B
:1032100019F028C030F029C031F02AC032F02BC09C
:1032200033F03334333232323132303230C028F07E
:1032300031C029F032C02AF033C02BF0394A3A2A83
:103240003ABE2BEF19F03A5008E13928D8A02BEFFD
:1032500019F02DEF19F038EF19F0000E3A6E3968B9
:10326000000E286E000E296E000E2A6E000E2B6EC8
:103270003ABE45EF19F03A5006E13904D8B043EFB1
:1032800019F045EF19F053EF19F0000E3A6E000EE9
:10329000396E000E286E000E296E000E2A6E000E8A
:1032A0002B6E000E386E39C03FF03FA05AEF19F078
:1032B0005CEF19F05FEF19F02A8E60EF19F02A9E8B
:1032C000D8903F302B6E16EF18F012008BC0A3F091
:1032D0008CC0A4F08DC0A5F08EC0A6F08FC0A7F062
:1032E00090C0A8F091C0A9F092C0AAF00001AABFB6
:1032F0007CEF19F07FEF19F0010E80EF19F0000E4E
:10330000A16FA26BA151A211D8B489EF19F08BEF74
:1033100019F09BEF19F0AA1FA91FA81FA71FA61F2E
:10332000A51FA41FA36D000EA423A523A623A723D6
:10333000A823A923AA23E4BFA0EF19F0A2EF19F054
:10334000A3EF19F0E593E4BFB0EF19F0E45106E103
:10335000E305D8B0AEEF19F0B0EF19F0B6EF19F001
:10336000000E9E6F010E9D6FBAEF19F0E3C09DF045
:10337000E4C09EF0E1C09FF0E2C0A0F0A151A21114
:10338000D8A4C5EF19F0C7EF19F0CEEF19F0E5A5F5
:10339000CCEF19F0CEEF19F0D1EF19F09F07D8A0BC
:1033A000A007000EAC6F4F0EAB6F000E01016D6FEA
:1033B00057EF1AF0AB07D8A0AC071E0EAB25D96E9D
:1033C000010EAC21DA6EA3C06EF0A4C06FF0A5C0F0
:1033D00070F0A6C071F0A7C072F0A8C073F0A9C0C9
:1033E00074F0AAC075F00A0E766F000E776F000EAB
:1033F000786F000E796F000E7A6F000E7B6F000EF3
:103400007C6F000E7D6FB5EC21F06EC093F06FC045
:1034100094F070C095F071C096F072C097F073C0D0
:1034200098F074C099F075C09AF093C080F095C080
:1034300081F0F3EC28F000018051300FDF6E9D0722
:10344000D8A09E079F07D8A0A007A3C06EF0A4C075
:103450006FF0A5C070F0A6C071F0A7C072F0A8C050
:1034600073F0A9C074F0AAC075F00A0E766F000E52
:10347000776F000E786F000E796F000E7A6F000E76
:103480007B6F000E7C6F000E7D6FF0EC20F06EC045
:10349000A3F06FC0A4F070C0A5F071C0A6F072C018
:1034A000A7F073C0A8F074C0A9F075C0AAF000011D
:1034B000ACBF63EF1AF0AC5108E1AB05D8A063EFE5
:1034C0001AF065EF1AF095EF1AF0A351A411A511A7
:1034D000A611A711A811A911AA11D8A472EF1AF068
:1034E00074EF1AF0DAEF19F09EBF81EF1AF09E51D7
:1034F00006E19D05D8B07FEF1AF081EF1AF0DAEF00
:1035000019F0A0BF8CEF1AF0A05108E19F05D8A0D8
:103510008CEF1AF08EEF1AF095EF1AF0E5B393EFF7
:103520001AF095EF1AF0DAEF19F0A151A211D8A410
:103530009CEF1AF09EEF1AF0A5EF1AF0E5A5A3EFA5
:103540001AF0A5EF1AF0C3EF1AF0AB07D8A0AC073A
:10355000A151A211D8A4AFEF1AF0B1EF1AF0B7EF52
:103560001AF0000E9C6F2B0E9B6FBBEF1AF0000E33
:103570009C6F2D0E9B6F1E0EAB25D96E010EAC21DC
:10358000DA6E9BC0DFFF89C07EF08AC07FF01E0E1E
:10359000AB25806F010EAC21816F9FC082F0A0C06F
:1035A00083F045EC25F07EC089F07FC08AF01200E0
:1035B0009390F29EF29CD08EF28AF184810ED56EA9
:1035C000F28EF28C000ED76E000ED66EF294B8EC2E
:1035D00029F00DEC26F0000E0001706F000E6F6FE9
:1035E000000E726F000E716F88EC29F0210E000141
:1035F0006F6F080E706F4FEC27F0000E0001836FA5
:10360000000E846FC80E856F420E866F000E6F6FBE
:10361000000E6E6FA1EC29F000016EC071F06FC05A
:1036200072F0000E72BFFF0E736F746F010E70ECBC
:103630001EF071C07FF072C080F073C081F074C062
:1036400082F0A0EC11F07FC098F080C099F081C0AA
:103650009AF082C09BF0000E00019C6FC00E9D6F1F
:103660007F0E9E6F440E9F6FCBEC15F098C014F147
:1036700099C015F19AC016F19BC017F1000E000118
:10368000836F000E846FA00E856F400E866F000E54
:103690006F6F010E6E6FA1EC29F000016EC071F02A
:1036A0006FC072F0000E72BFFF0E736F746F010E69
:1036B00070EC1EF071C07FF072C080F073C081F0BA
:1036C00074C082F0A0EC11F07FC098F080C099F037
:1036D00081C09AF082C09BF0000E00019C6FC00E6A
:1036E0009D6F7F0E9E6F440E9F6FCBEC15F098C0C0
:1036F00010F199C011F19AC012F19BC013F1000EA4
:103700000001836F000E846FC80E856F420E866FB6
:10371000000E6F6F020E6E6FA1EC29F000016EC0FB
:1037200071F06FC072F0000E72BFFF0E736F746F96
:10373000010E70EC1EF071C07FF072C080F073C09B
:1037400081F074C082F0A0EC11F07FC098F080C0CE
:1037500099F081C09AF082C09BF0000E00019C6F2E
:10376000C00E9D6F7F0E9E6F440E9F6FCBEC15F0C9
:1037700098C00CF199C00DF19AC00EF19BC00FF1E9
:10378000000E00016F6F030E6E6FA1EC29F06EC08A
:103790001CF16FC01DF1000E00016F6F040E6E6F03
:1037A000A1EC29F06EC01AF16FC01BF16E0E010181
:1037B000DE6F010EDF6F120EE06F080EE16F14C1B5
:1037C000E2F115C1E3F116C1E4F117C1E5F110C151
:1037D000E6F111C1E7F112C1E8F113C1E9F10CC141
:1037E000EAF10DC1EBF10EC1ECF10FC1EDF138ECD6
:1037F00028F0000E0001706F000E6F6F000E726FE8
:10380000000E716F88EC29F06E0E00016F6F010ED3
:10381000706F4FEC27F06E0E0101DE6F010EDF6F4F
:103820002C0EE06F080EE16F1CC1E2F11DC1E3F147
:103830001AC1E4F11BC1E5F138EC28F0000E0001DB
:10384000706F010E6F6F000E726F000E716F88EC5B
:1038500029F06E0E00016F6F010E706F4FEC27F0B4
:10386000FDEF1AF007EF00F00600F3CF64F0F4CF9D
:1038700065F0F2A43EEF1CF040EF1CF05FEF1DF08E
:103880000001E751E811D8A448EF1CF04AEF1CF002
:10389000CCEF1CF01AC1DDF01BC1DEF0000EDEBF64
:1038A000FF0EDF6FE06F000E456E800E466EBB0EA2
:1038B000476E440E486E000E2C6EC00E2D6E7F0EAD
:1038C0002E6E440E2F6E000E136EE00E146EAB0EB5
:1038D000156E450E166EDDC001F0DEC002F0DFC0D1
:1038E00003F0E0C004F0000E4CEC1FF001C00FF03C
:1038F00002C010F003C011F004C012F0B6EC13F0D7
:103900000FC028F010C029F011C02AF012C02BF00F
:1039100099EC17F028C041F029C042F02AC043F0CA
:103920002BC044F040EC0FF041C06AF042C06BF095
:1039300043C06CF044C06DF06AC055F06BC056F0E7
:103940006CC057F06DC058F0000E516EFF0E526EF5
:103950007F0E536E470E546ED0EC28F051C059F0D4
:1039600052C05AF053C05BF054C05CF0ECEC22F053
:1039700059C008F15AC009F15BC00AF15CC00BF1F3
:1039800008C1D6FF09C1D7FF8A90000E0001E86F79
:10399000010EE76F5EEF1DF0E705E811D8A4D3EF45
:1039A0001CF0D5EF1CF05EEF1DF0000E456E800E92
:1039B000466EBB0E476E440E486E000E2C6EC00E57
:1039C0002D6E7F0E2E6E440E2F6E000E136EE00EC7
:1039D000146EAB0E156E450E166EDDC001F0DEC026
:1039E00002F0DFC003F0E0C004F0000E4CEC1FF06A
:1039F00001C00FF002C010F003C011F004C012F0BB
:103A0000B6EC13F00FC028F010C029F011C02AF056
:103A100012C02BF099EC17F028C041F029C042F0F9
:103A20002AC043F02BC044F040EC0FF041C06AF0D4
:103A300042C06BF043C06CF044C06DF06AC055F0FA
:103A40006BC056F06CC057F06DC058F0000E516E50
:103A5000600E526E6A0E536E470E546ED0EC28F014
:103A600051C066F052C067F053C068F054C069F0AE
:103A700066C055F067C056F068C057F069C058F08E
:103A8000000E516EFF0E526E7F0E536E470E546E37
:103A9000D0EC28F051C059F052C05AF053C05BF03E
:103AA00054C05CF0ECEC22F059C0D6FF5AC0D7FFEE
:103AB0008A80000E0001E86F000EE76FF29465C087
:103AC000F4FF64C0F3FF5F92110000C1C1F001C1B7
:103AD000C2F002C1C3F003C1C4F0B1C0C1F0B2C0B2
:103AE000C2F0B3C0C3F0B4C0C4F0810E0001B56F22
:103AF000FF0EB66FC1C0B7F0C2C0B8F0C3C0B9F016
:103B0000C4C0BAF0180E8AEF1DF0D890BA33B9339A
:103B1000B833B733E82E85EF1DF0B751B525BF6F29
:103B2000000EB621C06FC0BF9FEF1DF0C05109E16C
:103B3000170EBF5DD8A09FEF1DF0A1EF1DF0ABEFFA
:103B40001DF0B1C0B1F0B2C0B2F0B3C0B3F0B4C0B8
:103B5000B4F06FEF1EF0C0BFB0EF1DF0B2EF1DF07C
:103B600023EF1EF0BFC0B5F0FF0EB66FFF0EB76FAC
:103B70007F0EB86F000EB96FB567C1EF1DF0C9EFCA
:103B80001DF0B935B933B833B733B633B52FBCEF01
:103B90001DF0B6C0BBF0B7C0BCF0B8C0BDF0B9C036
:103BA000BEF00001BB51C115B56FBC51C215B66F57
:103BB000BD51C315B76FBE51C415B86FB551B6111D
:103BC000B711B811D8A4E7EF1DF0E9EF1DF0EBEF46
:103BD0001DF0A1EF1DF0C1C0B5F0C2C0B6F0C3C06A
:103BE000B7F0C4C0B8F0200EFBEF1DF0D890B8338A
:103BF000B733B633B533E82EF6EF1DF0B551B61135
:103C0000B711B811D8B407EF1EF009EF1EF011EF8D
:103C10001EF0BB51C127BC51C223BD51C323BE51AD
:103C2000C423BB1DB56FBC1DB66FBD1DB76FBE1DD8
:103C3000B86FB551C117B651C217B751C317B851B4
:103C4000C41767EF1EF0C1C0B5F0C2C0B6F0C3C064
:103C5000B7F0C4C0B8F0200E33EF1EF0D890B833E0
:103C6000B733B633B533E82E2EEF1EF0B551B6118B
:103C7000B711B811D8A43FEF1EF041EF1EF04BEF83
:103C80001EF0000EC16F000EC26F000EC36F000E5B
:103C9000C46F67EF1EF0D890C135B56FC235B66FEF
:103CA000C335B76FC435B86FB551B611B711B81178
:103CB000D8B45DEF1EF05FEF1EF067EF1EF0000E50
:103CC000C16F000EC26F800EC36FBF0EC46FC1C044
:103CD000B1F0C2C0B2F0C3C0B3F0C4C0B4F01200BF
:103CE0000001796F00017951D8B479EF1EF07BEFB4
:103CF0001EF09DEF1EF074BF82EF1EF080EF1EF0ED
:103D00009DEF1EF071C075F072C076F073C077F051
:103D100074C078F0751F761F771F781F752B000E03
:103D200076237723782375C07BF076C07CF077C04C
:103D30007DF078C07EF0A5EF1EF071C07BF072C000
:103D40007CF073C07DF074C07EF0715172117311FC
:103D50007411D8A4AEEF1EF0B0EF1EF0BAEF1EF053
:103D6000000E716F000E726F000E736F000E746F95
:103D70004BEF1FF0960E7A6FC4EF1EF07A2BD8909F
:103D80007E337D337C337B33000E7B15756F000EE5
:103D90007C15766F000E7D15776FFE0E7E15786FA1
:103DA0007551761177117811D8A4D9EF1EF0DBEF99
:103DB0001EF0BEEF1EF0E9EF1EF07A2B010E7B27FE
:103DC000000E7C237D237E23D8907E337D337C338D
:103DD0007B33000E7B15756F000E7C15766F000E21
:103DE0007D15776FFF0E7E15786F755176117711FF
:103DF0007811D8A4FEEF1EF000EF1FF0DDEF1EF0EB
:103E000008EF1FF07A07D8907B377C377D377E37F5
:103E10007DBF0DEF1FF00FEF1FF017EF1FF0020E29
:103E20007A6115EF1FF017EF1FF002EF1FF07AB164
:103E30001CEF1FF01EEF1FF01FEF1FF07D9FD890AB
:103E40007A337AC075F0766B776B786B75C078F0E3
:103E5000776B766B756B75517B1376517C1377514D
:103E60007D1378517E137951D8B439EF1FF03BEFB1
:103E70001FF043EF1FF074BF42EF1FF040EF1FF041
:103E800043EF1FF07E8F7BC071F07CC072F07DC06D
:103E900073F07EC074F01200096E0950D8B453EF6D
:103EA0001FF055EF1FF077EF1FF004BE5CEF1FF01F
:103EB0005AEF1FF077EF1FF001C005F002C006F0C7
:103EC00003C007F004C008F0051E061E071E081EEA
:103ED000052A000E06220722082205C00BF006C0A4
:103EE0000CF007C00DF008C00EF07FEF1FF001C00E
:103EF0000BF002C00CF003C00DF004C00EF0015036
:103F0000021003100410D8A488EF1FF08AEF1FF0EE
:103F100094EF1FF0000E016E000E026E000E036E95
:103F2000000E046E25EF20F0960E0A6E9EEF1FF035
:103F30000A2AD8900E320D320C320B32000E0B14BE
:103F4000056E000E0C14066E000E0D14076EFE0EAC
:103F50000E14086E0550061007100810D8A4B3EF11
:103F60001FF0B5EF1FF098EF1FF0C3EF1FF00A2A04
:103F7000010E0B26000E0C220D220E22D8900E32BE
:103F80000D320C320B32000E0B14056E000E0C14A9
:103F9000066E000E0D14076EFF0E0E14086E05500F
:103FA000061007100810D8A4D8EF1FF0DAEF1FF0A2
:103FB000B7EF1FF0E2EF1FF00A06D8900B360C3671
:103FC0000D360E360DBEE7EF1FF0E9EF1FF0F1EFF3
:103FD0001FF0020E0A60EFEF1FF0F1EF1FF0DCEFB1
:103FE0001FF00AB0F6EF1FF0F8EF1FF0F9EF1FF027
:103FF0000D9ED8900A320AC005F0066A076A086A60
:1040000005C008F0076A066A056A05500B120650DB
:104010000C1207500D1208500E120950D8B413EFAD
:1040200020F015EF20F01DEF20F004BE1CEF20F073
:104030001AEF20F01DEF20F00E8E0BC001F00CC027
:1040400002F00DC003F00EC004F01200000E0001DB
:10405000836F000E826F000E7C6F000E7B6F33EF5C
:1040600020F0754B762B010E816F75C0F6FF76C080
:10407000F7FF0800F550200AD8B441EF20F043EFD5
:1040800020F060EF20F0F70E776FFF0E786F75C0AD
:10409000F6FF76C0F7FF0800F550796F7A6B77511D
:1040A000792778517A237A5109E1050E795DD8A0F4
:1040B0005CEF20F05EEF20F060EF20F0000E816FEB
:1040C00081C07DF07E6B7D517E11D8A46AEF20F017
:1040D0006CEF20F031EF20F076EF20F0000E7C6FD7
:1040E000010E7B6F754B762BACEF20F075C0F6FFA1
:1040F00076C0F7FF0800F550776F786B7851000AAB
:10410000D8B485EF20F0ACEF20F077512B0AD8B46B
:1041100072EF20F0060AD8B46EEF20F0ACEF20F07A
:1041200082C06EF083C06FF0000E716F0A0E706F68
:10413000CEEC29F075C0F6FF76C0F7FF0800F55009
:1041400000016E5F000E6F5B300E6E25826F000EF9
:104150006F21836F72EF20F0D00E776FFF0E786FB4
:1041600075C0F6FF76C0F7FF0800F550796F7A6BDF
:104170007751792778517A237A510AE10A0E795DCD
:10418000D8A0C5EF20F0C8EF20F0010EC9EF20F055
:10419000000E7F6F806B7F518011D8A4D2EF20F08A
:1041A000D4EF20F090EF20F07B517C11D8A4DBEF0E
:1041B00020F0DDEF20F0EBEF20F082C077F083C03D
:1041C00078F0771F781F774B782B77C075F078C021
:1041D00076F0EFEF20F082C075F083C076F0120029
:1041E000000E00017F6F7DBFFAEF20F0F8EF20F0A6
:1041F0000CEF21F07D1F7C1F7B1F7A1F791F781F1A
:10420000771F766D000E7723782379237A237B231B
:104210007C237D23010E7F6F75BF13EF21F011EF1B
:1042200021F025EF21F0751F741F731F721F711F7E
:10423000701F6F1F6E6D000E6F237023712372232A
:10424000732374237523010E7F1B20EE80F0070E6D
:10425000DE6AE806FDE276517711781179117A115C
:104260007B117C117D11D8B438EF21F03AEF21F0A9
:104270008CEF21F0010E7E6F48EF21F0D890763759
:104280007737783779377A377B377C377D377E2BAE
:104290007DAF4DEF21F04FEF21F03EEF21F0D890B0
:1042A000803781378237833784378537863787373A
:1042B00076516E5D77516F597851705979517159B6
:1042C0007A5172597B5173597C5174597D5175598A
:1042D000D8A06DEF21F06FEF21F080EF21F0765143
:1042E0006E5F77516F5B7851705B7951715B7A517A
:1042F000725B7B51735B7C51745B7D51755B80811C
:10430000D8907D337C337B337A337933783377338A
:1043100076337E2F4FEF21F07F51D8B492EF21F00A
:1043200094EF21F0A4EF21F0871F861F851F841FC3
:10433000831F821F811F806D000E812382238323B0
:10434000842385238623872380C06EF081C06FF08D
:1043500082C070F083C071F084C072F085C073F0C9
:1043600086C074F087C075F01200000E00017F6FE8
:1043700075BFBFEF21F0BDEF21F0D1EF21F0751F28
:10438000741F731F721F711F701F6F1F6E6D000EE1
:104390006F23702371237223732374237523010EFB
:1043A0007F6F7DBFD8EF21F0D6EF21F0E8EF21F04D
:1043B0007D1F7C1F7B1F7A1F791F781F771F766DEB
:1043C000000E7723782379237A237B237C237D2394
:1043D00076517711781179117A117B117C117D1149
:1043E000D8B4F5EF21F0F7EF21F03FEF22F0010E06
:1043F0007E6F05EF22F0D8907637773778377937A8
:104400007A377B377C377D377E2B7DAF0AEF22F002
:104410000CEF22F0FBEF21F076516E5D77516F5972
:1044200078517059795171597A5172597B51735938
:104430007C5174597D517559D8A021EF22F023EF9A
:1044400022F033EF22F076516E5F77516F5B785137
:10445000705B7951715B7A51725B7B51735B7C51FC
:10446000745B7D51755BD8907D337C337B337A33BD
:1044700079337833773376337E2F0CEF22F07F5108
:10448000D8B445EF22F047EF22F057EF22F0751F26
:10449000741F731F721F711F701F6F1F6E6D000ED0
:1044A0006F237023712372237323742375236EC0CB
:1044B0006EF06FC06FF070C070F071C071F072C0BC
:1044C00072F073C073F074C074F075C075F01200B0
:1044D000000170357135776F7751D8A472EF22F0F3
:1044E00074EF22F07EEF22F0000E6E6F000E6F6F01
:1044F000000E706F000E716FEBEF22F06EC072F065
:104500006FC073F070C074F071C075F0200E8EEF44
:1045100022F0D8907533743373337233E82E89EFF9
:1045200022F07251766F708FFF0E6E17FF0E6F17AD
:10453000FF0E7017000E7117960E775F77BFA5EF0D
:1045400022F0A3EF22F0BBEF22F07751800A970F01
:10455000D8B0ADEF22F0AFEF22F0B1EF22F074EF60
:1045600022F0D890713370336F336E33773FB1EFF1
:1045700022F0D3EF22F01F0E7765C1EF22F0C3EFD8
:1045800022F0CBEF22F074EF22F0D8906E376F3725
:104590007037713777077751D8A4D1EF22F0D3EF76
:1045A00022F0C5EF22F07651D8B4D9EF22F0DBEF3C
:1045B00022F0E3EF22F0711F701F6F1F6E6D000E6F
:1045C0006F23702371236EC06EF06FC06FF070C0E8
:1045D00070F071C071F012005B345C345E6E5E503E
:1045E000D8A4F5EF22F0F7EF22F001EF23F0000E50
:1045F000596E000E5A6E000E5B6E000E5C6E6FEF11
:1046000023F059C060F05AC061F05BC062F05CC03A
:1046100063F0200E12EF23F00001D8906333623371
:1046200061336033E82E0CEF23F060515D6E5B8EDA
:10463000FF0E5916FF0E5A16FF0E5B16000E5C1683
:10464000960E5E5E5EBE29EF23F027EF23F03FEF6C
:1046500023F05E50800A970FD8B031EF23F033EF8C
:1046600023F035EF23F0F7EF22F0D8905C325B3285
:104670005A3259325E3E35EF23F057EF23F01F0ECA
:104680005E6445EF23F047EF23F04FEF23F0F7EFA1
:1046900022F0D89059365A365B365C365E065E504C
:1046A000D8A455EF23F057EF23F049EF23F05D50E6
:1046B000D8B45DEF23F05FEF23F067EF23F05C1ECB
:1046C0005B1E5A1E596C000E5A225B225C2259C096
:1046D00059F05AC05AF05BC05BF05CC05CF012004D
:1046E000000E00019815A06F000E9915A16F800EA5
:1046F0009A15A26F7F0E9B15A36FA051A111A21155
:10470000A311D8A486EF23F088EF23F090EF23F0D5
:10471000000E986F000E996F000E9A6F000E9B6F3F
:10472000000E9C15A06F000E9D15A16F800E9E15AA
:10473000A26F7F0E9F15A36FA051A111A211A3110B
:10474000D8A4A5EF23F0A7EF23F0AFEF23F0000EDE
:104750009C6F000E9D6F000E9E6F000E9F6F9BAFB3
:10476000B4EF23F0B6EF23F0BFEF23F0986D991F5D
:10477000D8B0992B9A1FD8B09A2B800E9B579FAF19
:10478000C4EF23F0C6EF23F0CFEF23F09C6D9D1F05
:10479000D8B09D2B9E1FD8B09E2B800E9F57000E29
:1047A000981B000E991B000E9A1B800E9B1B000E7F
:1047B0009C1B000E9D1B000E9E1B800E9F1B9C5180
:1047C000985D9D5199599E519A599F519B59D8B0C6
:1047D000ECEF23F0EEEF23F0F1EF23F0D890F2EFBF
:1047E00023F0D880120004C178F005C179F006C129
:1047F0007AF007C17BF06EC078F06FC079F070C0BE
:104800007AF071C07BF078C072F079C073F07AC032
:1048100074F07BC075F0180E14EF24F00001D890EE
:104820007533743373337233E82E0EEF24F0725104
:10483000766F776B76517711D8A421EF24F023EFB0
:1048400024F043EF24F0D8907835726F7935736F88
:104850007A35746F7B35756F7251731174117511E0
:10486000D8A435EF24F037EF24F03DEF24F0000E0C
:104870006F6F020E6E6F72EF24F0000E6F6F030EFB
:104880006E6F72EF24F076297711D8A44AEF24F0E6
:104890004CEF24F06EEF24F078C072F079C073F022
:1048A0007AC074F07BC075F0090ED89072377337F8
:1048B00074377537E82E55EF24F072517311741167
:1048C0007511D8B466EF24F069EF24F0010E6AEF99
:1048D00024F0000E6E6F6F6B72EF24F0000E6F6F9E
:1048E000040E6E6F12006EC075F06FC076F070C06F
:1048F00077F071C078F000017207D8A073077229B1
:1049000006E17329D8A487EF24F089EF24F096EF0D
:1049100024F0000E6F6F000E6E6FDEEF24F0754B0B
:10492000762B774B782B7207D8A0730775C0D9FF09
:1049300076C0DAFFDF50D8B4A0EF24F0A2EF24F065
:10494000CDEF24F077C0F6FF78C0F7FF0800F550F0
:104950000009D8B4AEEF24F0B0EF24F0CDEF24F08E
:1049600072517311D8B4B7EF24F0B9EF24F0CDEF42
:1049700024F075C0D9FF76C0DAFFDF50746F77C0BE
:10498000F6FF78C0F7FF0800F5507419D8B4CBEFE4
:1049900024F0CDEF24F08FEF24F075C0D9FF76C05E
:1049A000DAFFDF50746F77C0F6FF78C0F7FF0800BA
:1049B000F550745D6E6F6F6BD8A06F071200000129
:1049C00070517111D8B4E7EF24F0E9EF24F0F2EF61
:1049D00024F070517111D8A4F0EF24F0F2EF24F01C
:1049E000F7EF24F06E51F5EC29F044EF25F020EEBE
:1049F00004F07051D9267151DA22DE50DE10D8B49D
:104A000004EF25F006EF25F021EF25F020EE04F06D
:104A10007051D9267151DA2210EE02F07051E12660
:104A20007151E222DE50E65CE650800A766FDE507D
:104A3000800A7659D8B01FEF25F021EF25F044EF1A
:104A400025F020EE02F07051D9267151DA22DECF26
:104A500072F0DDCF73F070C0D9FF71C0DAFFDECF26
:104A600074F0DDCF75F072517425D96E73517521D4
:104A7000DA6E6EC0DFFF20EE02F07051D926715160
:104A8000DA22DE2A000EDD2212000001E5A14BEF42
:104A900025F04DEF25F057EF25F080C077F081C06D
:104AA00078F07EC079F07FC07AF0ACEC28F000019D
:104AB00083BF5DEF25F05FEF25F065EF25F082C045
:104AC00087F083C088F069EF25F0000E886F000E34
:104AD000876F000E866F000E856F7CEF25F0000E4D
:104AE0006F6F200E6E6F7EC070F07FC071F0DFECD4
:104AF00024F00001854B862B8751855D8651800A05
:104B0000846F8851800A8459D8A089EF25F08BEFF3
:104B100025F06FEF25F0E5B190EF25F092EF25F04D
:104B20009CEF25F080C077F081C078F07EC079F0EE
:104B30007FC07AF0ACEC28F080C06EF081C06FF0DE
:104B40004EEC29F0000187516E257E6F88516F2150
:104B50007F6F1200000E0001736F71BFB4EF25F07C
:104B6000B2EF25F0BAEF25F0706D711FD8B0712B40
:104B7000010E736F6FBFC1EF25F0BFEF25F0C7EFD8
:104B800025F06E6D6F1FD8B06F2B010E731B000EDA
:104B9000756F000E746F70517111D8B4D2EF25F09B
:104BA000D4EF25F0FCEF25F0010E726FDCEF25F05D
:104BB000D89070377137722B71AFE1EF25F0E3EFCA
:104BC00025F0D8EF25F0D8907437753770516E5DA9
:104BD00071516F59D8A0EFEF25F0F1EF25F0F6EF06
:104BE00025F070516E5F71516F5B7481D890713395
:104BF0007033722FE3EF25F07351D8B402EF26F033
:104C000004EF26F008EF26F0746D751FD8B0752BF1
:104C100074C06EF075C06FF012008350F00B836E9D
:104C2000F00E9516959C959A95988C9C8C9A8C98DC
:104C3000EA0E00016F6FC30EE82EFED76F2FFCD770
:104C4000300E61EC28F04E0E00016F6FEB0EE82E77
:104C5000FED76F2FFCD7300E61EC28F0F00E00D09D
:104C6000E82EFDD7320E61EC28F0F00E00D0E82ED1
:104C7000FDD7F00E00D0E82EFDD7280E61EC28F00D
:104C8000F00E00D0E82EFDD7080E61EC28F0F00EF3
:104C900000D0E82EFDD70F0E61EC28F0F00E00D00A
:104CA000E82EFDD7010E61EC28F0F00E00D0E82EC2
:104CB000FDD7040E61EC28F0F00E00D0E82EFDD7F1
:104CC000F00E00D0E82EFDD7060E61EC28F00C0E99
:104CD00061EC28F01200000E0001736F6FBF75EFDA
:104CE00026F073EF26F07BEF26F06E6D6F1FD8B0C5
:104CF0006F2B010E736F71BF82EF26F080EF26F0ED
:104D000086EF26F0706D711FD8B0712B7051711144
:104D1000D8B48DEF26F08FEF26F0B3EF26F0010E1A
:104D2000726F97EF26F0D89070377137722B71AF92
:104D30009CEF26F09EEF26F093EF26F070516E5D0B
:104D400071516F59D8A0A7EF26F0A9EF26F0ADEF6B
:104D500026F070516E5F71516F5BD8907133703374
:104D6000722F9EEF26F07351D8B4B9EF26F0BBEF47
:104D700026F0BFEF26F06E6D6F1FD8B06F2B6EC0A0
:104D80006EF06FC06FF01200000E00016E15766FAE
:104D9000000E6F15776F800E7015786F7F0E71158E
:104DA000796F7651771178117911D8A4DAEF26F05E
:104DB000DCEF26F0E4EF26F0000E6E6F000E6F6F52
:104DC000000E706F000E716F000E7215766F000E80
:104DD0007315776F800E7415786F7F0E7515796F68
:104DE0007651771178117911D8A4F9EF26F0FBEFFD
:104DF00026F003EF27F0000E726F000E736F000EA7
:104E0000746F000E756F72516E190FE173516F1947
:104E10000CE17451701909E175517119D8B413EF8F
:104E200027F015EF27F018EF27F0D89019EF27F0AB
:104E3000D8801200DAC1DBF0DBC1DCF0000E01012A
:104E4000196F000E186F3CEF27F0D8C1D1F0D9C10F
:104E5000D2F0DB0E0001D36F000ED46FDCC1D5F0B1
:104E6000DDC1D6F03BEC0AF00001D1510101182759
:104E70000001D25101011923DBC0F6FFDCC0F7FFAE
:104E80000800F5500009D8A448EF27F04AEF27F0B2
:104E900025EF27F018C1D8F119C1D9F112006AEF36
:104EA00027F0F00E00D0E82EFDD76FC0F6FF70C0DF
:104EB000F7FFF86A070EF76403D00800F55005D035
:104EC000F6CFE1FFF7CFE2FFE750E3EC27F0000178
:104ED0006F4B702B6FC0F6FF70C0F7FFF86A070EBC
:104EE000F76403D00800F55005D0F6CFE1FFF7CF07
:104EF000E2FFE7500009D8A480EF27F082EF27F007
:104F000051EF27F01200BF0E0001766FFF0E776F92
:104F100074C078F075C079F076517827775179238D
:104F200079510AE11A0E785DD8A099EF27F09CEF2D
:104F300027F0010E9DEF27F0000E7A6F7B6B7A5100
:104F40007B11D8B4A6EF27F0A8EF27F0AFEF27F03A
:104F5000200E7411746F7551756FB3EF27F074C024
:104F600074F075C075F0120070C074F071C075F007
:104F70006EC076F06FC077F000017451726F75519A
:104F8000736F744B752B72C0F6FF73C0F7FFF86A2E
:104F900076C0D9FF77C0DAFF764B772B070EF76420
:104FA00003D00800F55005D0F6CFE1FFF7CFE2FFC0
:104FB000E750DF6EDF50D8A4E0EF27F0E2EF27F0F4
:104FC000BCEF27F0120000016E6FF00E00D0E82E4B
:104FD000FDD7F00E8316F00E951600016E390F0BFB
:104FE0000F0B8310836E8C9C8C8A140EE82EFED7D8
:104FF0008C88140EE82EFED78C98F00E83160001D4
:105000006E510F0B8312140EE82EFED78C88140EEF
:10501000E82EFED78C980F0E95121200010E00019B
:10502000746F200E6E196F11D8B419EF28F01BEFB2
:1050300028F034EF28F0F70E706FFF0E716F6EC01E
:1050400072F06FC073F070517227715173237351F6
:1050500009E1050E725DD8A030EF28F032EF28F09C
:1050600034EF28F0000E746F74C06EF06F6B120096
:10507000E20E0101F06F010EF16FDEC1F2F1DFC14E
:10508000F3F1000EF56F000EF46F000EF76F000ED7
:10509000F66FF20ED86F010ED96FE0C1DAF1E1C1FF
:1050A000DBF1F00EDC6F010EDD6F1AEC27F0010171
:1050B000F451DE25D96EF551DF21DA6E000EDF6E78
:1050C000120000016E6FF00E8316F00E95160001AF
:1050D0006E390F0B0F0B8310836E8C9C8C9A140E01
:1050E000E82EFED78C88140EE82EFED78C98F00E92
:1050F000831600016E510F0B8312140EE82EFED79B
:105100008C88140EE82EFED78C980F0E9512120084
:10511000000E00019C1B000E9D1B000E9E1B800EAE
:105120009F1B98C06EF099C06FF09AC070F09BC042
:1051300071F09CC072F09DC073F09EC074F09FC06F
:1051400075F0DFEC0CF06EC098F06FC099F070C095
:105150009AF071C09BF01200000E00017D6F000EEE
:105160007C6FBFEF28F07BC06EF06F6B79C070F082
:105170007AC071F0DFEC24F000017C4B7D2B7C5178
:105180007725D96E7D517821DA6EDF507B6F7B51A8
:10519000D8A4CDEF28F0CFEF28F0B3EF28F012001D
:1051A000000E551A000E561A000E571A800E581A85
:1051B00051C041F052C042F053C043F054C044F0DB
:1051C00055C045F056C046F057C047F058C048F0AB
:1051D00040EC0FF041C051F042C052F043C053F0D8
:1051E00044C054F01200000181BF01EF29F0815149
:1051F00006E18005D8B0FFEF28F001EF29F00FEFAE
:1052000029F080C082F081C083F0821F831F824B0F
:10521000832B82C080F083C081F013EF29F080C01F
:1052200080F081C081F01200BF0E0001706FFF0E90
:10523000716F6EC072F06FC073F070517227715150
:10524000732373510AE11A0E725DD8A02AEF29F078
:105250002DEF29F0010E2EEF29F0000E6E6F6F6B0F
:10526000120000016E516F1170117111D8B43BEF33
:1052700029F03DEF29F045EF29F0000E6E1B000EDE
:105280006F1B000E701B800E711B6EC06EF06FC026
:105290006FF070C070F071C071F012006EC070F0ED
:1052A0006FC071F057EF29F000016E4B6F2B6EC08D
:1052B000D9FF6FC0DAFFDF50D8A461EF29F063EFA8
:1052C00029F054EF29F0000170516E5D6E6F71513D
:1052D0006F596F6F1200D00E0001706FFF0E716F6B
:1052E0006EC072F06FC073F07051722771517323EA
:1052F00073510AE10A0E725DD8A081EF29F084EFA4
:1053000029F0010E85EF29F0000E6E6F6F6B120011
:10531000000170BF94EF29F0705108E16F05D8A02B
:1053200094EF29F096EF29F09CEF29F07151C00F0E
:1053300061EC28F0A0EF29F07151800F61EC28F0AA
:1053400012006EC070F0000170477047C2507019B3
:10535000C30B7019C26EC282C2B2B1EF29F0B3EFB3
:1053600029F0ACEF29F0C3CF6EF0C4CF6FF012007C
:10537000CF0EC116C150F00B0A09C16EC050C70B49
:105380000809C06EC050F80B0609C06EC08EC280FE
:105390009280928292849286928A120000016E51CB
:1053A0007003F3CF72F0F4CF73F06E517103F350CA
:1053B00073276F517003F350732772C06EF073C080
:1053C0006FF0120001EE00F08C0EEE6AE806FDE1CF
:1053D00000EEDDF00C0EEE6AE806FDE15F905F92F4
:0C53E000000EF86E0001D8EF1AF0120069
:020000040020DA
:08000000FFFFFFFFFFFFFFFF00
:020000040030CA
:0E000000010E191EFF8180FF0FC00FE00F40A0
:00000001FF
